{
  "contractName": "NotaryStore",
  "abi": [
    {
      "constant": false,
      "inputs": [
        {
          "name": "newOwner",
          "type": "address"
        }
      ],
      "name": "setOwner",
      "outputs": [
        {
          "name": "",
          "type": "bool"
        }
      ],
      "payable": false,
      "stateMutability": "nonpayable",
      "type": "function"
    },
    {
      "constant": true,
      "inputs": [
        {
          "name": "signer",
          "type": "address",
          "indexed": true
        },
        {
          "indexed": true,
          "name": "documentHash",
          "type": "bytes32"
        }
      ],
      "name": "cost",
      "outputs": [
        {
          "name": "",
          "type": "uint256"
        }
      ],
      "payable": false,
      "stateMutability": "view",
      "type": "function",
      "anonymous": false
    },
    {
      "constant": false,
      "inputs": [
        {
          "name": "index",
          "type": "uint256"
        }
      ],
      "name": "withdraw",
      "outputs": [],
      "payable": false,
      "stateMutability": "nonpayable",
      "type": "function"
    },
    {
      "constant": false,
      "inputs": [
        {
          "name": "newCost",
          "type": "uint256"
        }
      ],
      "name": "setCost",
      "outputs": [
        {
          "name": "",
          "type": "uint256"
        }
      ],
      "payable": false,
      "stateMutability": "nonpayable",
      "type": "function"
    },
    {
      "anonymous": false,
      "inputs": [
        {
          "indexed": false,
          "name": "documentHash",
          "type": "bytes32"
        },
        {
          "indexed": false,
          "name": "documentHash",
          "type": "string"
        }
      ],
      "name": "create",
      "type": "function",
      "constant": false,
      "outputs": [],
      "payable": true,
      "stateMutability": "payable"
    },
    {
      "constant": true,
      "inputs": [],
      "name": "owner",
      "outputs": [
        {
          "name": "",
          "type": "address"
        }
      ],
      "payable": false,
      "stateMutability": "view",
      "type": "function"
    },
    {
      "inputs": [],
      "payable": false,
      "stateMutability": "nonpayable",
      "type": "constructor"
    },
    {
      "anonymous": false,
      "inputs": [
        {
          "indexed": true,
          "name": "signer",
          "type": "address"
        },
        {
          "indexed": true,
          "name": "documentHash",
          "type": "bytes32"
        }
      ],
      "name": "Entry",
      "type": "event"
    }
  ],
  "bytecode": "0x6060604052341561000f57600080fd5b336000806101000a81548173ffffffffffffffffffffffffffffffffffffffff021916908373ffffffffffffffffffffffffffffffffffffffff16021790555066038d7ea4c680006001819055506103f28061006c6000396000f300606060405260043610610078576000357c0100000000000000000000000000000000000000000000000000000000900463ffffffff16806313af40351461007d57806313faede6146100b65780633ccfd60b146100df57806344a0d68a146100f45780637368a8ce146101175780638da5cb5b14610133575b600080fd5b341561008857600080fd5b6100b4600480803573ffffffffffffffffffffffffffffffffffffffff16906020019091905050610188565b005b34156100c157600080fd5b6100c9610226565b6040518082815260200191505060405180910390f35b34156100ea57600080fd5b6100f261022c565b005b34156100ff57600080fd5b61011560048080359060200190919050506102e0565b005b610131600480803560001916906020019091905050610345565b005b341561013e57600080fd5b6101466103a1565b604051808273ffffffffffffffffffffffffffffffffffffffff1673ffffffffffffffffffffffffffffffffffffffff16815260200191505060405180910390f35b6000809054906101000a900473ffffffffffffffffffffffffffffffffffffffff1673ffffffffffffffffffffffffffffffffffffffff163373ffffffffffffffffffffffffffffffffffffffff161415156101e357600080fd5b806000806101000a81548173ffffffffffffffffffffffffffffffffffffffff021916908373ffffffffffffffffffffffffffffffffffffffff16021790555050565b60015481565b6000809054906101000a900473ffffffffffffffffffffffffffffffffffffffff1673ffffffffffffffffffffffffffffffffffffffff163373ffffffffffffffffffffffffffffffffffffffff1614151561028757600080fd5b3373ffffffffffffffffffffffffffffffffffffffff166108fc3073ffffffffffffffffffffffffffffffffffffffff16319081150290604051600060405180830381858888f1935050505015156102de57600080fd5b565b6000809054906101000a900473ffffffffffffffffffffffffffffffffffffffff1673ffffffffffffffffffffffffffffffffffffffff163373ffffffffffffffffffffffffffffffffffffffff1614151561033b57600080fd5b8060018190555050565b600154341015151561035657600080fd5b80600019163373ffffffffffffffffffffffffffffffffffffffff167f5e963567d1b0ba9c0ef0500d079a18c4efdc8b6673bbf5645ff9e63eb914d00660405160405180910390a350565b6000809054906101000a900473ffffffffffffffffffffffffffffffffffffffff16815600a165627a7a72305820bdba1c30b2d7e168903899932888893c99ef5c84bcef4915337fc5ba5413be590029",
  "source": "pragma solidity ^0.4.18;\n\ncontract NotaryStore {\n\n  address public owner;\n  uint public cost;\n\n  function NotaryStore() public {\n    owner = msg.sender;\n    cost = 1 finney;\n  }\n\n  event Entry(\n    address indexed signer,\n    bytes32 indexed documentHash\n  );\n\n  modifier costs {\n    require(msg.value >= cost);\n    _;\n  }\n\n  modifier onlyOwner {\n    require(msg.sender == owner);\n    _;\n  }\n\n  /**\n    create a new Entry in the logs.\n   */\n  function create(bytes32 documentHash) public payable costs {\n    Entry(msg.sender, documentHash);\n  }\n\n  function withdraw() public onlyOwner {\n    msg.sender.transfer(this.balance);\n  }\n\n  function setOwner(address newOwner) public onlyOwner {\n    owner = newOwner;\n  }\n\n  function setCost(uint newCost) public onlyOwner {\n    cost = newCost;\n  }\n\n}\n",
  "sourcePath": "/Users/ddegreef/practice/ethereum-notary-contracts/contracts/NotaryStore.sol",
  "compiler": {
    "name": "solc",
    "version": "0.4.18+commit.9cf6e910.Emscripten.clang"
  },
  "schemaVersion": "1.0.1",
  "updatedAt": "2018-01-03T21:01:07.748Z"
}