{
  "contractName": "NotaryStore",
  "abi": [
    {
      "constant": false,
      "inputs": [
        {
          "name": "documentHash",
          "type": "bytes32"
        }
      ],
      "name": "create",
      "outputs": [
        {
          "name": "",
          "type": "bool"
        }
      ],
      "payable": true,
      "stateMutability": "payable",
      "type": "function"
    },
    {
      "constant": false,
      "inputs": [
        {
          "name": "signer",
          "type": "address",
          "indexed": true
        },
        {
          "indexed": true,
          "name": "documentHash",
          "type": "bytes32"
        }
      ],
      "name": "Entry",
      "outputs": [
        {
          "name": "",
          "type": "uint256"
        }
      ],
      "payable": false,
      "stateMutability": "nonpayable",
      "type": "event",
      "anonymous": false
    },
    {
      "constant": false,
      "inputs": [
        {
          "name": "index",
          "type": "uint256"
        }
      ],
      "name": "read",
      "outputs": [],
      "payable": false,
      "stateMutability": "nonpayable",
      "type": "function"
    },
    {
      "constant": false,
      "inputs": [
        {
          "name": "sender",
          "type": "address"
        }
      ],
      "name": "findAll",
      "outputs": [
        {
          "name": "",
          "type": "uint256"
        }
      ],
      "payable": false,
      "stateMutability": "nonpayable",
      "type": "function"
    },
    {
      "anonymous": false,
      "inputs": [
        {
          "indexed": false,
          "name": "signer",
          "type": "address"
        },
        {
          "indexed": false,
          "name": "documentHash",
          "type": "string"
        }
      ],
      "name": "FoundEntry",
      "type": "event"
    }
  ],
  "bytecode": "0x6060604052341561000f57600080fd5b6101088061001e6000396000f300606060405260043610603f576000357c0100000000000000000000000000000000000000000000000000000000900463ffffffff1680637368a8ce146044575b600080fd5b605c6004808035600019169060200190919050506076565b604051808215151515815260200191505060405180910390f35b600066038d7ea4c68000803410151515608e57600080fd5b82600019163373ffffffffffffffffffffffffffffffffffffffff167f5e963567d1b0ba9c0ef0500d079a18c4efdc8b6673bbf5645ff9e63eb914d00660405160405180910390a3509190505600a165627a7a72305820d4c05adf2146492608631ce498684b111bd38f7fb6e37ceb353b2a492c9802ad0029",
  "source": "pragma solidity ^0.4.18;\n\ncontract NotaryStore {\n\n  event Entry(\n    address indexed signer,\n    bytes32 indexed documentHash\n  );\n\n  modifier costs(uint _amount) {\n    require(msg.value >= _amount);\n    _;\n  }\n\n  /**\n    create a new Entry in the logs.\n   */\n  function create(bytes32 documentHash) public payable costs(1 finney) returns (bool) {\n    Entry(msg.sender, documentHash);\n  }\n}\n",
  "sourcePath": "/Users/ddegreef/practice/ethereum-notary-contracts/contracts/NotaryStore.sol",
  "compiler": {
    "name": "solc",
    "version": "0.4.18+commit.9cf6e910.Emscripten.clang"
  },
  "schemaVersion": "1.0.1",
  "updatedAt": "2018-01-02T22:08:26.909Z"
}